:1000000027C041C040C03FC03EC03DC03CC03BC017
:100010003AC039C038C037C036C035C078C233C0E6
:1000200032C031C030C02FC02EC02DC02CC02BC05C
:100030002AC029C028C62EC634C63AC640C646C6FF
:100040004CC61CCA22CA28CA2ECA34CA3ACA40CAD6
:1000500011241FBECFEFD4E0DEBFCDBF12E0A0E081
:10006000B1E0E4E4F5E102C005900D92A23EB107D3
:10007000D9F723E0A2EEB2E001C01D92A031B20791
:10008000E1F7E6D85DCABCCF84B1817E84B92D9AF0
:100090002F9800002E9A000083B186958295807F6C
:1000A00000002E9800002E9A000093B100002E98B8
:1000B000000088237CF32D9884B18E6184B9089563
:1000C000282F22952F708F70611102C02F9801C0C8
:1000D0002F9A00002E9A95B1220F917E922B95B9FE
:1000E00000002E9800002E9A95B1880F917E892BE2
:1000F00085B900002E980000C7DF08950F931F9365
:10010000CF93DF938C01FC0180818823E9F0853255
:1001100091F4E8012196F80181818053883018F428
:1001200061E0CEDF0BC061E085E2CADF61E0F8018B
:100130008181C6DF03C061E0C3DFE8018E010F5F8C
:100140001F4F89818111E3CFDF91CF911F910F91D3
:100150000895EF92FF920F931F93CF93DF9300D0F8
:1001600000D01F92CDB7DEB77B01FE01319625E0AE
:10017000DF011D922A95E9F7009751F035962AE0A4
:1001800030E0B901B6D98293862F972F0097C9F72F
:10019000BFEFEB16FB0669F4298121110FC0FE01A8
:1001A000329600E010E00F5F1F4F21912223D9F318
:1001B00007C005E010E00E191F0902C000E010E0C2
:1001C00099231CF461E08DE27BDF053011059CF47E
:1001D000E1E0F0E0EC0FFD1F0E0F1F1F7E01F6E0C7
:1001E000EF0EF11CD8018D918D0161E0805D68DF1B
:1001F0000E151F05B9F70F900F900F900F900F90ED
:10020000DF91CF911F910F91FF90EF90089584316E
:1002100070F4623031F0633031F0613029F4806481
:1002200003C08C5E01C08C5A60E0806849DF08958D
:100230000F931F93CF93DF93C82F8BE49DE101971A
:10024000F1F700C0000084B18E6184B9269A279A24
:10025000259A85B1817E85B92E982D982F9800001A
:100260002E9A2A9A00002E9800000EDF60E08C2F54
:100270008C6026DF60E088E223DF60E080E420DF3E
:10028000C0E0D1E000E411E061E0899119DFC0171E
:10029000D107D1F760E080E0BADFDF91CF911F9105
:1002A0000F9108951092B90082E08093B8000895EC
:1002B00084EA8093BC00ECEBF0E080818823ECF7CB
:1002C0008091B900887F089584EA8093BC00ECEBAC
:1002D000F0E080818823ECF78091B900887F089551
:1002E0008093BB0084E88093BC00ECEBF0E080815D
:1002F0008823ECF78091B900887F08958093BB0034
:1003000084E88093BC00ECEBF0E080818823ECF77C
:100310008091B900887F089584E88093BC00ECEB5D
:10032000F0E080818823ECF78091BB00089584E998
:100330008093BC00ECEBF0E0808184FDFDCF08955C
:10034000B7DF80EDCDDF80E0D9DFBEDF81EDC8DF34
:10035000E3DF0895ADDF80EDC3DF81E0CFDFB4DF01
:1003600081EDBEDFD9DF0895A3DF80EDB9DF82E044
:10037000C5DFAADF81EDB4DFCFDF089599DF80ED1F
:10038000AFDF83E0BBDFA0DF81EDAADFC5DF08952B
:100390008FDF80EDA5DF84E0B1DF96DF81EDA0DFA8
:1003A000BBDF089585DF80ED9BDF85E0A7DF8CDF75
:1003B00081ED96DFB1DF08957BDF80ED91DF86E090
:1003C0009DDF82DF81ED8CDFA7DF08959DEC899FA3
:1003D000912D1124969596959695292F220F322FBF
:1003E000330F330F230F821B20E1929F800D1124C6
:1003F0000895CF93C82F5CDF80ED72DF80E07EDF51
:100400008C2FE4DF7BDF93DFCF910895CF93C82F4C
:100410004FDF80ED65DF81E071DF8C2FD7DF6EDF8E
:1004200086DFCF9108951F93CF93DF93D82FC62FE8
:10043000142F3EDF80ED54DF82E060DFC13051F4E5
:100440008D2FC4DF90E2199FA00111244064842BFA
:1004500055DF03C08D2FBADF51DF69DFDF91CF9108
:100460001F910895CF93C82F23DF80ED39DF83E0FC
:1004700045DF8C2FABDF42DF5ADFCF910895CF935A
:10048000C82F16DF80ED2CDF84E038DF8C2F9EDF55
:1004900035DF4DDFCF910895CF93C82F09DF80ED71
:1004A0001FDF85E02BDF8C2F91DF28DF40DFCF912E
:1004B0000895CF93C82FFCDE80ED12DF86E01EDFAB
:1004C0008C2F84DF1BDF33DFCF910895982F929517
:1004D0009F70990F292F220F220F920F8F70890F73
:1004E00008958FEF84B98FE087B918B881E085B996
:1004F00084B5826084BD85B5836085BDEEE6F0E09D
:100500008081826080838BE987BD789408951F92F3
:100510000F920FB60F9211248F9380914201815058
:100520008093420180914201811106C081E0809355
:10053000EC0282E3809342018F910F900FBE0F90E7
:100540001F90189580EF8AB98FE08BB9089580913C
:100550004101813069F460E0B3DD61E089E057DE9C
:1005600089E692E0CBDD439A81E08093EB02089527
:1005700080914101823021F561E089E048DE83E429
:1005800091E0BCDD43982FE986E891E0215080405E
:100590009040E1F700C000002FE986E891E021508B
:1005A00080409040E1F700C0000061E089E02FDE6C
:1005B00087E092E0A3DD60E081E082DD1092EB0253
:1005C000089580914001813069F461E089E01FDE87
:1005D0008AE491E093DD88B1876088B981E08093F7
:1005E000EA02089580914001823019F561E089E0C6
:1005F0000EDE87E591E082DD88B1887F88B92FE93A
:1006000086E891E0215080409040E1F700C0000072
:100610002FE986E891E0215080409040E1F700C04A
:10062000000061E089E0F3DD87E092E067DD109291
:10063000EA0208952091E60244E68091E70290E004
:10064000429F800D911D11245091070320910303B7
:1006500030E0459F200D311D112482179307BCF017
:100660004091090320910D0330E054E6459F200D91
:10067000311D11248217930754F488B1876088B91B
:1006800061E089E0C4DD82E691E038DD089561E053
:1006900089E0BDDD84E092E031DD88B1887F88B9F2
:1006A00008952091E60244E68091E70290E0429F9F
:1006B000800D911D11245091F4022091F20230E03E
:1006C000459F200D311D11248217930774F140912D
:1006D00005032091F60230E054E6459F200D311DC0
:1006E0001124821793070CF58091E502982F9D7FC6
:1006F000913011F08530C9F48091EB02811115C061
:100700008091EA02811111C0439A61E089E07FDDA6
:100710008EE691E0F3DC8FE996E821E0815090408D
:100720002040E1F700C00000089561E089E06FDD3E
:1007300084E092E0E3DC43980895CF93DF938FEE5B
:100740008BB983ED90E30197F1F700C0000089B108
:10075000499B06C0D1E08D27D82FD170C0E002C0E0
:10076000D4E0C0E04A9902C0D7E0C0E04B9902C093
:10077000DAE0C0E08FED8BB983ED90E30197F1F7FC
:1007800000C00000489902C0D2E0C0E0499902C010
:10079000D5E0C0E04A9902C0D8E0C0E04B9902C061
:1007A000DCE0C0E08FEB8BB983ED90E30197F1F7CC
:1007B00000C00000489902C0D3E0C0E0499902C0DF
:1007C000D6E0C0E04A9902C0D9E0C0E04B9B94D289
:1007D0008FE78BB983ED90E30197F1F700C000003C
:1007E00048990CC0B4DE80914101813021F482E04F
:1007F0008093410103C081E08093410149990CC07D
:10080000E0DE80914001813021F482E0809340015C
:1008100003C081E0809340014A9BD5D14B9B05D01A
:100820008D2F9C2FDF91CF9108951F93CF93DF934E
:1008300060E080E0ECDC85E791E060DC61E089E08D
:10084000E6DC83E092E05ADC78DF892B09F0B7C15F
:1008500019E0D5E0C2E071DF8A30910531F42091D2
:10086000E9022F5F2093E90221C08C30910569F4E1
:100870001092EE0210920E031092FC021092F502FA
:1008800010920F0310920B0321C08130910571F477
:1008900021E02093EE0220930E032093FC0220938C
:1008A000F50220930F0320930B0321C082309105A2
:1008B00069F4C093EE02C0930E03C093FC02C09390
:1008C000F502C0930F03C0930B0322C08330910540
:1008D00071F423E02093EE0220930E032093FC0298
:1008E0002093F50220930F0320930B0321C0843043
:1008F000910571F424E02093EE0220930E032093DF
:10090000FC022093F50220930F0320930B0321C0D8
:100910008530910569F4D093EE02D0930E03D09305
:10092000FC02D093F502D0930F03D0930B0322C0A7
:100930008630910571F426E02093EE0220930E0399
:100940002093FC022093F50220930F0320930B03C6
:1009500022C08730910571F427E02093EE022093A6
:100960000E032093FC022093F50220930F032093A3
:100970000B0321C08830910571F488E08093EE026A
:1009800080930E038093FC028093F50280930F0303
:1009900080930B0316C08930910569F41093EE0221
:1009A00010930E031093FC021093F50210930F03A3
:1009B00010930B0306C0009709F4FBC00A9709F4D3
:1009C0004ACF8091E9028111DBC08091EE028F73E2
:1009D0007DDD8093E60261E080E019DC8091E60233
:1009E00061E070E090E0B5DB8091E602EFDC80939F
:1009F000E602C6C08091F5028F7368DD8093F50230
:100A000061E081E004DC8091F50261E070E090E05B
:100A1000A0DB8091F502DADC8093F5029091E6028A
:100A2000990F292F220F220F920F890F8093000315
:100A300040E060E0F8DCA9C080910E0347DD8093C0
:100A4000E70261E083E0E3DB8091E70261E070E0D0
:100A500090E07FDB8091E702B9DC8093E7029AC0E7
:100A600080910F0333DD80930F0361E084E0CFDBDF
:100A700080910F0361E070E090E06BDB80910F03E9
:100A8000A5DC80930F039091E702990F292F220F85
:100A9000220F920F890F8093FB02B8DC80C08091F7
:100AA000FC0214DD8093E80261E086E0B0DB809117
:100AB000E80261E070E090E04CDB8091E80286DCC7
:100AC0008093E80271C080910B0300DD80930B03DB
:100AD00061E087E09CDB80910B0361E070E090E0D7
:100AE00038DB61E088E093DB8AE092E007DB80910D
:100AF0000B036CDC80930B039091E802990F292F74
:100B0000220F220F920F890F8093F30272DC51C0E3
:100B100080910003883140F48091FB028C3320F4F3
:100B20008091F3028C3348F1109200031092FB0283
:100B30001092F30260E081E0C3DA60E080E067DBFE
:100B400086E891E0DBDA61E080E061DB8DE891E04E
:100B5000D5DA2FE38DE093E0215080409040E1F71B
:100B600000C0000040E060E0809100035CDC809108
:100B7000FB024CDC8091F3023CDC1092E9021FC0C6
:100B80008091E902813009F435CF8091E902823009
:100B900009F452CF8091E902833009F461CF80914A
:100BA000E902843009F47BCF8091E902853009F4B1
:100BB0008ACF8091E902863009F04DCEA9CFDF912E
:100BC000CF911F910895DF92EF92FF920F931F93A1
:100BD000CF93DF9360E081E073DA60E080E017DBC1
:100BE00087E991E08BDAA9DD892B09F07DC00F2E12
:100BF000F7E0DF2EF02D0F2EF6E0EF2EF02D0F2E6A
:100C0000F5E0FF2EF02D04E013E0D2E0C1E095DD29
:100C10008A30910509F468C08130910519F4C093B8
:100C200004030CC08230910519F4D09304030CC066
:100C30008330910519F4109304030CC0843091059E
:100C400019F4009304030CC08530910519F4F09257
:100C500004030AC08630910519F4E092040304C02D
:100C6000079711F4D092040380910403FBDB86DB29
:100C70008093E50290E0FC013197E730F10538F60A
:100C8000E65EFF4F09946C2F80E0C1DA87EA91E0BD
:100C900035DABDCF6C2F80E0BADA81EB91E02EDA45
:100CA000B6CF6C2F80E0B3DA8AEB91E027DAAFCFD2
:100CB0006C2F80E0ACDA84EC91E020DAA8CF6C2FC6
:100CC00080E0A5DA8EEC91E019DAA1CF6C2F80E0FC
:100CD0009EDA87ED91E012DA9ACF6C2F80E097DAF6
:100CE0008FED91E00BDA93CFDF91CF911F910F91B0
:100CF000FF90EF90DF900895DF92EF92FF920F93B5
:100D00001F93CF93DF9360E080E081DA88EE91E07B
:100D1000F5D961E080E07BDA8AEF91E0EFD90DDD73
:100D2000892B09F08DC20F2EF9E0DF2EF02D68948B
:100D3000EE24E3F80F2EF7E0FF2EF02D06E012E090
:100D4000FCDCEC018A30910531F48091E9028F5F7F
:100D50008093E90219C08C30910549F41092EE029B
:100D600010920E031092F50210920F0319C08130F9
:100D7000910551F481E08093EE0280930E038093FD
:100D8000F50280930F0319C0C230D10549F41093C6
:100D9000EE0210930E031093F50210930F031AC086
:100DA000C330D10551F483E08093EE0280930E03AB
:100DB0008093F50280930F031AC0C430D10551F41B
:100DC00084E08093EE0280930E038093F50280937B
:100DD0000F0319C0C530D10551F485E08093EE02B0
:100DE00080930E038093F50280930F0318C0C630E2
:100DF000D10549F40093EE0200930E030093F5022F
:100E000000930F0318C0C730D10549F4F092EE02E9
:100E1000F0920E03F092F502F0920F0318C0C83062
:100E2000D10549F4E092EE02E0920E03E092F50261
:100E3000E0920F0313C0C930D10549F4D092EE02FD
:100E4000D0920E03D092F502D0920F0307C02097E4
:100E500009F449C0CA30D10509F445C08091E902BE
:100E60008111BDC18091EE0231DB8093FE0261E011
:100E700080E0CDD98091FE0261E070E090E069D918
:100E8000AEC18091F50222DB8093EF0261E081E048
:100E9000BED98091EF0261E070E090E05AD9A4C120
:100EA00080910E0313DB8093020361E083E0AFD9EE
:100EB0008091020361E070E090E04BD99AC180918B
:100EC0000F0304DB8093ED0261E084E0A0D9809100
:100ED000ED0261E070E090E03CD961E085E097D9F7
:100EE00087E092E00BD98091E9028430D1F460E090
:100EF00080E08DD98CE092E001D961E080E087D973
:100F00008DE192E0FBD880910F03E0DA8093F0024C
:100F100061E080E07CD98091F00261E070E090E0D7
:100F200018D92097D1F1CA30D105B9F18091E902E1
:100F3000853009F064C180910F03C8DA8093F8020C
:100F400061E081E064D98091F80261E070E090E0B6
:100F500000D955C180910F03B9DA8093F10261E0A5
:100F600083E055D98091F10261E070E090E0F1D822
:100F70004BC180910F03AADA8093010361E084E002
:100F800046D98091010361E070E090E0E2D861E031
:100F900085E03DD987E092E0B1D88091E9028830C0
:100FA00081F58091FE02880F982F990F990F890F74
:100FB0009091EF02890F8093F4028091F002880FE4
:100FC000982F990F990F890F9091F802890F8093AC
:100FD000050380910203880F982F990F990F890FAD
:100FE0009091ED02890F8093F2028091F102880FB7
:100FF000982F990F990F890F90910103890F809372
:10100000F6028091E9028930E9F460E081E058D885
:1010100060E080E0FCD88EE292E070D861E080E091
:10102000F6D88DE192E06AD88091EE024FDA809393
:10103000FD0261E080E0EBD88091FD0261E070E0AC
:1010400090E087D82097D1F1CA30D105B9F18091CD
:10105000E9028A3009F0DEC08091F50237DA809328
:10106000060361E081E0D3D88091060361E070E07F
:1010700090E06FD8CFC080910E0328DA8093FF02F2
:1010800061E083E0C4D88091FF0261E070E090E00D
:1010900060D8C5C080910F0319DA8093FA0261E02D
:1010A00084E0B5D88091FA0261E070E090E051D818
:1010B00061E085E0ACD887E092E020D88091E90239
:1010C0008D30D1F460E080E0A2D880E492E016D8C0
:1010D00061E080E09CD88DE192E010D880910F0310
:1010E000F5D980930C0361E080E091D880910C03E6
:1010F00061E070E090E02DD82097C9F12A97B9F10E
:101100008091E9028E3009F090C080910F03DED902
:101110008093080361E081E07AD88091080361E060
:1011200070E090E016D881C080910F03CFD98093F2
:10113000F90261E083E06BD88091F90261E070E030
:1011400090E007D877C080910F03C0D98093F70251
:1011500061E084E05CD88091F70261E070E090E0AB
:10116000F8D761E085E053D887E092E0C7D7809157
:10117000E902813109F0E4CD8091FD02880F982FBA
:10118000990F990F890F90910603890F8093070398
:1011900080910C03880F982F990F990F890F9091C8
:1011A0000803890F809309038091FF02880F982F0D
:1011B000990F990F890F9091FA02890F8093030379
:1011C0008091F902880F982F990F990F890F9091AC
:1011D000F702890F80930D031092E90231C08091CC
:1011E000E902813009F44DCE8091E902823009F4A0
:1011F00057CE8091E902833009F075CE60CE8091A0
:10120000E902863009F4A6CE8091E902873009F020
:10121000C4CEAFCE8091E9028B3009F42CCF8091FF
:10122000E9028C3009F04ACF35CF8091E9028F3046
:1012300009F47ACF8091E902803109F098CF83CF09
:10124000DF91CF911F910F91FF90EF90DF90089564
:1012500079D947D927D880E0EBD760E081E030D753
:1012600060E083E0D4D781E592E048D761E085E093
:10127000CED78DE592E042D72FED83E994E021505F
:1012800080409040E1F700C0000060E081E018D7A6
:1012900060E080E0BCD785E692E030D761E080E096
:1012A000B6D780E792E02AD72FED83E994E021506A
:1012B00080409040E1F700C0000060E081E000D78E
:1012C00060E080E0A4D780E892E018D761E080E099
:1012D0009ED78FE892E012D72FED83E994E021505A
:1012E00080409040E1F700C0000060E081E0E8D677
:1012F00060E080E08CD78FE992E000D72FED83E9A2
:1013000094E0215080409040E1F700C0000060E090
:1013100081E0D6D680E06DD880E078D840E060E00B
:1013200080E081D881E09ED881E0A9D881E0B4D85E
:101330008FE0BFD8C1E001DA8091EC02813029F45E
:101340001092EC0285B18C2785B9FAD78093E80218
:1013500001D88093E70208D88093E6020FD88093E3
:10136000E50216D88093E4021DD88093E30224D8C6
:101370008093E2028091E6028F73A8D88093E60200
:101380006C2F80E044D78091E60262E070E090E04C
:10139000E0D66C2F82E03BD78FEA92E0AFD6809107
:1013A000E70294D88093E7026C2F83E030D78091D6
:1013B000E70262E070E090E0CCD66C2F85E027D7A2
:1013C0008FEA92E09BD68091E80280D88093E80271
:1013D0006C2F86E01CD78091E80262E070E090E01C
:1013E000B8D66C2F88E013D78AE092E087D6809138
:1013F000E4026CD88093E40260E080E008D780913A
:10140000E40262E070E090E0A4D660E082E0FFD603
:101410008FEA92E073D68091E30258D88093E3027A
:1014200060E083E0F4D68091E30262E070E090E057
:1014300090D660E085E0EBD68FEA92E05FD68091AF
:10144000E20244D88093E20260E086E0E0D6809138
:10145000E20262E070E090E07CD660E088E0D7D6FF
:101460008AE092E04BD68091E50290E0FC01319752
:10147000E730F10598F5EF5DFF4F099460E089E0F2
:10148000C6D681EB92E03AD629C060E089E0BFD6AB
:1014900089EB92E033D622C060E089E0B8D68FEBCA
:1014A00092E02CD61BC060E089E0B1D686EC92E0D9
:1014B00025D614C060E089E0AAD68DEC92E01ED655
:1014C0000DC060E089E0A3D683ED92E017D606C098
:1014D00060E089E09CD68AED92E010D68091EB0224
:1014E000811129CF8091EA02811125CFDAD8A2D8C3
:1014F00022CF97FB072E16F4009406D077FD08D074
:101500000BD007FC05D03EF4909581959F4F089530
:10151000709561957F4F0895AA1BBB1B51E107C0D1
:10152000AA1FBB1FA617B70710F0A61BB70B881F73
:10153000991F5A95A9F780959095BC01CD01089502
:04154000F894FFCF4D
:101544000C12120C000000000C1204081E00000013
:101554000A15110A040000000305090B0B181800F2
:101564001F0E0E04040404040101050515151500DD
:101574000E11111F1F1F1F000000000000000000BB
:1015840001013253616972202000536567757261ED
:101594006EE7615F4D200053616972202020202096
:1015A40020005365677572616E8D615F41005265FD
:1015B40067615F4100416365727465206120686FF3
:1015C40072613A202000496E73697261004E6F7631
:1015D400616D656E746500416365727465206F208A
:1015E4006469613A202000536567756E6461202048
:1015F400005465726361202020005175617274612A
:10160400202020005175696E7461202020005365EC
:101614007874612020200053616261646F2000446B
:101624006F6D696E676F2000496E6963696F20642E
:101634006120726567613A20200030303A303020F2
:1016440020202020202020202020200046696D20FA
:10165400646120726567613A202020200030303AAE
:101664003030202020202020202020202000496EFF
:101674006963696F207365677572616E8D6361005C
:1016840046696D207365677572616E8D613A2020BD
:101694000050726F6772616D61646F720053656DA3
:1016A400616E616C0041202D20526567615F4D00C1
:1016B40042202D205365677572616E63615F4D0032
:1016C40043202D2041636572746120646961004484
:1016D400202D2041636572746120686F726100235C
:1016E400202D20416365727461204175746F003A46
:1016F40000536567756E64610054657263610051DF
:101704007561727461005175696E74610053657816
:1017140074610053616261646F00446F6D696E6748
:021724006F0054
:00000001FF
